:4000000000100020110000001D0A00001D0A000010B500F00BFDC04670B50F4C23688022D20213432360182000F07CFD22680B4B134023600A4A0B4B1A60063A0A4B1A608A
:40004000002525600949092000F050FD092000F031FD074B1D6070BD00010B40FFFFFBFF0600008004010B4008010B40350D00000C020B4010B572B600240FE01648620012
:40008000131959000B00411889881A5AC31858880004104300F0BCFC0134E4B2012CEDD9EE2212020D4B1A6099231B040C4A13600C4A13600C4A117806230B43DBB2137091
:4000C000C0225203094B1A60D8221201084B1A60FFF7A2FF10BDC046A40F00000C00014010500F4030500F4000700F400801044008030440000000000000000000000000DE
:4001000010B5064C2378002B07D1054B002B02D0044800E000BF0123237010BD4801002000000000940F0000084B10B5002B03D00749084800E000BF07480368002B00D137
:4001400010BD064B002BFBD09847F9E7000000004C010020940F0000C00000200000000000B583B000F026F80023019301330093F433FF3332220349034800F09BF900F090
:40018000C9F9FEE7980F00008D01000010B5FA218900484300F03EFE0400002000F01CFE200000F0B3FA012000F016FE200000F0ADFAF2E710B507490B2000F087FC0649A1
:4001C0000E2000F083FC05490F2000F07FFC62B610BDC046B1080000410900008509000010B572B6012000F0F7FDFEE772B6FEE7030008334360012252428260C360036119
:40020000002303607047C046002303617047C04643684B609A688A609A68516099600861036801330360704730B50C68631C01D1026907E00200083200E01A0053681D68B5
:40024000AC42FAD253684B6099608A605160086103680133036030BD03694268816891608268416851605A68904201D182685A60002202611A68501E186070470A4B9B6A36
:400280001B68002B01D1013300E00023002B04D001225242044BDA6205E0034B9A6AD268D2685268DA6270476401002010B50400006B00F0ABFB200000F0A8FB10BDC04619
:4002C000F0B583B000900D0017000193089C0A9E9200A521306B00F055FE234BFB189B00326B94466344072293431F00002308E0E9180878F218343210700A78002A02D00A
:4003000001330F2BF4D900224323F254042C00D90424F46274640023B364301DFFF774FF30001830FFF770FF366105231C1BB4617662002206E0130012339B00F31800217E
:4003400059600132042AF6D9002333666422B354019A0099380000F09BFA3060099B002B00D01E6003B0F0BDFFFFFF3FF8B5002408E0A2001219930010483030C018FFF772
:4003800037FF0134042CF4D90D4C270014373800FFF72EFF260028363000FFF729FF074D28001430FFF724FF20003C30FFF720FF2800FFF71DFFAF622665F8BD6401002053
:4003C000E401002010B5040000F09AFA1E4B5A6D01325A659B6D002B07D11B4B9C655B6D012B0ED1FFF7C2FF0BE0174BDB6D002B07D1154B9B6DDB6AE26A934201D8124BF1
:400400009C65114A136E01331366E36A526E934201D90D4A5366211D9A00D3189A000B4830308018FFF7F4FE00F076FA064BDB6D002B07D0044B9B6DDA6AE36A9A4201D244
:4004400000F052FA10BDC046E40100206401002070B504000D00154B9E6E986D0430FFF7FBFE631C08D1002D06D0104B996D04310F48FFF7CDFE18E034190C4B9B6D5C60B0
:40048000A64206D9094B186D996D0431FFF7CCFE0BE0074DA86A054B996D0431FFF7C4FEEB6A9C4201D2024BDC6270BDE401002064010020F0B587B00490059114001F008C
:4004C000900000F071FA061E0AD0682000F06CFA051E01D0066304E0300000F097FA00E00025002D11D00023039302950D9B01930C9B00933B00220005990498FFF7E0FEFF
:400500002800FFF75FFF012001E00120404207B0F0BDC04600B583B00C4B743301930023009332220A490B48FFF7C4FF01280BD172B601225242084BDA62044B0232DA6518
:4005400000229A6600F0B6F903B000BDE40100209C0F00007907000064010020024A136F013313677047C046E4010020F8B5324B1B6F002B53D1304B9F6E01379F66002F60
:4005800009D12E4A916A186D906219659A6F01329A67FFF773FE294BDB6A9F4203D2002542E0012500E00025244B9B6A1B68002B01D1013300E00023002B04D00122524293
:4005C0001E4BDA6230E01D4B9B6ADB68DE6873689F4202D2194AD36226E0341D2000FFF73BFEB36A002B03D030001830FFF734FEF36A114A526E934201D90F4A53669A00F4
:40060000D3189A000D48303080182100FFF700FEF26A094B9B6DDB6A9A42C2D2C4E7064AD36F0133D3670025054B1B68002B00D001252800F8BDC046E40100206401002035
:400640006402002070B500F05BF92D4B1A6F013A1A671B6F002B4CD1294B5B6D002B26D1002449E0274B1B6ADC6820001830FFF7F3FD251D2800FFF7EFFDE36A204A526E05
:40068000934201D91E4A53669A00D3189A001D48303080182900FFF7BBFD194B9B6DDB6AE26A9A4204D30122174B1A6000E00024144B5B69002BD5D1002C01D0FFF7DEFDA2
:4006C0000F4BDC6F002C0CD0FFF750FF002802D001220D4B1A60013C002CF5D10022084BDA67094B1B68002B05D000F0FDF8012402E0002400E0002400F00EF9200070BD05
:40070000E4010020640100206402002010B5041E08D0FFF723FF00212000FFF799FEFFF791FF00E00020002801D100F0DDF810BD70B51AE0FFF712FF0E4BDC6BFFF782FFB5
:40074000002C12D000F0DCF80A4CA36CDD68281DFFF782FD636D013B6365E36E013BE36600F0DAF82800FFF7A1FD024BDB6E002BE0D170BDE401002010B5FFF7D9FFFCE701
:4007800010B5284B1B6F002B03D00122264B1A6046E00022244B1A60224B9B6D1B6B234A1968914209D15968914206D19968914203D1DA681D4B9A4205D01A4B986D996DC6
:4007C0003431FFF713FD174B5B6E00E0013B9900C9188A0016498A18126B002AF6D00A009900CC18A0001018446B6468446330321000C9188A0008328218944206D160683E
:400800009900C9188A000A498A1850639900C9188A0007498A18526BD168024A9165536610BDC046E401002064020020A5A5A5A56401002072B6FEE70000000000000000A1
:400840000B4A13681868203080F30988022080F31488BFF36F8F3FBCAE4608BC04BC62B61847C046C046C046C046C046C046C0463C020020034A044B1A600722034B1A607A
:400880007047C046BF5D000014E000E010E000E010B5031F802464041C60043B1960043B02491960143B1A60403810BD350800007047C04610B50A4B1A68FF2109040A4373
:4008C0001A601A68FF2109060A431A60FFF7D2FF0022044B1A60FFF7B3FFFFF7ABFFC04620ED00E0C400002080225205034B1A60BFF34F8FBFF36F8F7047C04604ED00E0A6
:4009000072B6044A136801331360BFF34F8FBFF36F8F7047C4000020034A1368013B1360002B00D162B67047C4000020EFF3108072B670470020C04680F310887047C046DF
:40094000EFF309800E4B1A6820381060F0C044464D4656465F46F0C008B572B6FFF710FF62B60CBC116808681030F0C8A046A946B246BB4680F309882038F0C81847C046B9
:400980003C02002010B5FFF7D1FF0400FFF7EEFD002803D080225205024B1A602000FFF7CBFF10BD04ED00E070B50400430702D007239C430834FFF7D1FD114B1B68002BD8
:4009C00005D10F4A13000C3307218B4313600D4B5B68E4180C4A944207D8A34207D2084A1568ED18074B5C6002E0002500E00025FFF728FE002D01D1FFF7F2FB280070BDEC
:400A00006802002068060020F70300007047C04610B50A00002100F0B5FA10BD10B500F085FA03680C2B00D1FEE7FEE770B50F4E0F4D13E029686B68AC68002202E001C903
:400A400001C30432A242FAD1E868002202E0002102C304328242FAD11035013E002EE9D100F06AFAFFF77CFBFEE7C046010000000410000010B500230AE0032B03D89A002C
:400A80000949505800E009489900094A885001332F2BF2D9FFF7EEFA8022D205116801230B43136010BDC046000000001D0A0000000000201F2318401E3B8340014A1360AB
:400AC0007047C04600E100E001BE704770B504000D000F2802D90020FFF7F6FFA40080239B059C4664442068256070BD70B504000D001F2802D90020FFF7E6FF1034A400C9
:400B000080239B059C4664442068256070BDC04610B5034B1B7B584300F06AF910BDC046C8000020F0B557464E46C0B483B0040000F068F90190E71E2D2F74D83F4B1B7829
:400B4000DBB29C4208D83E4B1B78DBB29A463D4B1B78DBB2994631E03B4B1B78DBB29C4208D83A4B1B78DBB29A46394B1B78DBB2994623E0374B1B78DBB29C4208D8364BB9
:400B80001B78DBB29A46354B1B78DBB2994615E0334B1B78DBB29C4208D8324B1B78DBB29A46314B1B78DBB2994607E02F4B1B78DBB29A462E4B1B78DBB299462D4BDE5DE1
:400BC0002F2E09D92A2C07D919222B4B1A60052000F00EF9192503E0274B1D683F231D40B54206D9234BDA5D234B1A60052000F0FFF81F4B9C4664442378DBB21F4A1360FB
:400C00001F4B52461A601F4B4A461A600520FFF77FFFB5420AD2174BDA5D174B1A60052000F0E6F802E00020FFF74EFF019800F0EDF803B00CBC91469A46F0BDC0F1FF0F9F
:400C4000C1F1FF0FC2F1FF0FC3F1FF0FC4F1FF0FC5F1FF0FC6F1FF0FC7F1FF0FC8F1FF0FC9F1FF0FCAF1FF0FCBF1FF0FCCF1FF0FCDF1FF0FB00F00002CFF0B4028FF0B40BF
:400C80001CFF0B4020FF0B40034B1868C0231B02184000D00120704700010B4010B500F0B1F8044A1368C02109020B43136000F0ADF810BD00010B4010B500F0A3F8084927
:400CC0000A68084B1A408024E40122430A600A6813408022120213430B6000F097F810BD00010B40FF3FFFFF70B5050000F08AF80400FFF7C9FF002803D0FFF7DDFF012120
:400D000000E0002108482840084A1568084B2B40184310601368012901D1FFF7BFFF200000F074F870BDC0460404040010020B40FBFBFBFF10B5244B1B685B0715D5234BFE
:400D40001B685B070ED5224BD969042001401F4C22688A432260DA698243DA611B69002B00D098470420FFF7BFFF174B1B685B0518D5164B1B685B0510D5154BD96980223B
:400D8000D2001140114802688A430260D969114A0A40DA615B69002B00D098478020C000FFF7A2FF084B1B685B030CD5074B1B685B0304D5064B9B69002B00D09847802077
:400DC000C002FFF791FF10BD10020B40DC00002070060020FFFBFFFF04490A68D2B240239A4380011840104308607047000104400230800804D0C0460138FDD1C046C0463D
:400E0000C0467047EFF3108072B6704780F310887047C046002243088B4274D303098B425FD3030A8B4244D3030B8B4228D3030C8B420DD3FF22090212BA030C8B4202D324
:400E40001212090265D0030B8B4219D300E0090AC30B8B4201D3CB03C01A5241830B8B4201D38B03C01A5241430B8B4201D34B03C01A5241030B8B4201D30B03C01A5241AC
:400E8000C30A8B4201D3CB02C01A5241830A8B4201D38B02C01A5241430A8B4201D34B02C01A5241030A8B4201D30B02C01A5241CDD2C3098B4201D3CB01C01A52418309C1
:400EC0008B4201D38B01C01A524143098B4201D34B01C01A524103098B4201D30B01C01A5241C3088B4201D3CB00C01A524183088B4201D38B00C01A524143088B4201D3D8
:400F00004B00C01A5241411A00D20146524110467047FFE701B5002000F006F802BDC0460029F7D076E770477047C046014B18687047C046400100200E4B70B500251E000A
:400F40000D4CE41AA410A54204D0AB00F35898470135F8E700F044F8084B00251E00084CE41AA410A54204D0AB00F35898470135F8E770BDEC0F0000EC0F0000EC0F000036
:400F8000F40F000003008218934202D019700133FAE77047000000004C45440049444C450000000000300F40000400400F400004030405060708090A0B0C0E0F10111213DE
:400FC0001415161718191B1C1D1E1F2021222325262728292A2B2E2F3031323334354300F8B5C046F8BC08BC9E46704729010000750A0000F8B5C046F8BC08BC9E46704737
:401000000101000018100000C000002088000000480500000000000000000000AAAAAAAA010000000000E02EC05D00001800000000366E0104040400000000000000000034
:40104000000000000000000000000000000000000000000000000000DE0F000000000000000000000000000000000000000000000000000000000000000000000000000083
:40108000000000000000000000000000000000000000000000000000E000002000000000000000000000000000000000000000000000000000000000000000000000000030
:4010C00000000000000000000000000000000000000000000000000000000000000000000000000000000000000000000000000000000000000000000000000000000000F0
:4011000000000000000000000000000000000000000000000000000000000000000000000000000000000000000000000000000000000000000000000000000000000000AF
:40114000000000000000000000000000000000000000000000000000000000000000000000000000000000000000000000000000000000000000000000000000000000006F
:40118000000000000000000000000000000000000000000000000000000000000000000000000000000000000000000000000000000000000000000000000000000000002F
:0200000490303A
:02000000CB61D2
:0200000490402A
:200000000000000000000000000000000000000000000000000000000000000000000000E0
:0200000490501A
:0C000000000204C81193110104CDDCF4CF
:0200000490600A
:0100000001FE
:00000001FF