:400000000010002011000000A9100000A910000010B501F051F8C04670B5134C23688022D20213432360182001F0C2F822680F4B134023600E4A0F4B1A6010220E4B1A60DC
:40004000802212060D4B1A60002525600C4A0D4B1A600D49092001F08FF8092001F070F80A4B1D6070BDC04600010B40FFFFFBFF0600008004010B403002024008010B40C2
:400080001900008000000240C11300000C020B4070B572B60122354B1A7000240FE034486200131959000B00411889881A5AC31858880004104300F0EDFF0134E4B2022C78
:4000C000EDD9002411E02A4EA2001319590071188D8AC88A000428430A8B498B09041143802200F0DDFF0134E4B2002CEBD0204920312048043000F0B3FF802252001E4BE6
:400100001A8001231D4A13701D491E4A1160992109041D4A11601D491D4A1160802189021C4A1160C02109031B4A11601B4A136002211B4B19601B4803783C229343142213
:400140001343DBB20370184A107816230343DBB21370C0225203154B1A60154B1960154A154B1A60FFF758FF70BDC0461C700F40B8170000B819000000600F4002600F4032
:4001800030EE00000C00014010500F400400990030500F4034500F4038500F402000004000800F4001700F4000700F400801044000030440B10D00000803044010B5064CA9
:4001C0002378002B07D1054B002B02D0044800E000BF0123237010BD4801002000000000A0170000084B10B5002B03D00749084800E000BF07480368002B00D110BD064B5C
:40020000002BFBD09847F9E7000000004C010020A0170000C00000200000000010B582B06B46DC1D054B186801235B420122210000F0D2F9207801F089F9F1E7640100206C
:4002400010B5FA218900484301F0E0F9040001F015F9C043C0B201F005F9200000F076FCF5E7C04610B509490B2000F075FF08490E2000F071FF07490F2000F06DFF064847
:4002800001F092F962B601F03DF910BDFD0E0000910F0000D50F00009D02000000B583B001F040F96B46D91D0870054B18680023012200F05DF901F085F903B000BDC04616
:4002C0006401002030B583B0FFF7CCFF002201210A2000F02BF90C4B18600025019501240094FA235B0032220849094800F002FB01950094002332220649074800F0FAFA5D
:4003000000F028FBFEE7C04664010020A417000041020000A81700001D02000010B572B6012001F09FF8FEE772B6FEE7030008334360012252428260C3600361002303604F
:400340007047C046002303617047C04643684B609A688A609A68516099600861036801330360704730B50C68631C01D1026907E00200083200E01A0053681D68AC42FAD240
:4003800053684B6099608A605160086103680133036030BD03694268816891608268416851605A68904201D182685A60002202611A68013A1A6018687047C046826843681F
:4003C000D3180068181A824200D8801A7047C046F8B504000F0016001D002022002101F0D6F9A761A660E560069B002B03D0227F012313432377F8BDF0B583B006000191A3
:400400001700446883681D1B954200D91500B36918192A00019901F0B1F9AF4205D97A1B019B5919B06901F0A9F9E319B268934200D39B1A7360380003B0F0BD30B583B051
:4004400004000D000192002B12D0027FD20706D4019A9A4200D91A00019201230BE0069A934207D3042201A9FFF7C6FF012302E0002300E00023002B05D0019A29002000A1
:40048000FFF7BAFF00E0002003B030BDF0B583B00600019114009A4200D91C00002C1AD03568B3685B1B27009C4200D91F00B36959193A00019801F061F9BC4205D9019B33
:4004C000D819E21BB16901F059F96519B3689D4200D3ED1A3560200003B0F0BDF0B5474680B482B005000E0017001C00089B002B10D0036898462300089A01A9FFF7C6FF4B
:40050000089BE41A019BBB4205D943462B600023019300E001922300019A31002800FFF7B5FF02B004BC9046F0BDC046F0B583B00D001700002900D10135461C213000F0DA
:400540005BFD041E06D00100203100972B003200FFF73EFF200003B0F0BDC04682680368D3184068181A0138824200D8801A7047F0B585B004000F0015000393037FDB07F0
:4005800001D5161D00E016002000FFF7E7FF030000962A0039002000FFF750FF051E18D02000FFF70BFFE368984212D300F0E8FC07002369002B09D02069039B0093002362
:4005C0000022002100F0CAFB00232361380000F0DBFC280005B0F0BDF0B585B00400029103921F00037FDB0701D5042600E00026002F1FD000F0AEFC2000FFF7DFFE050094
:40060000864205D3002000F019FC00F00BFB206100F0ACFCAE4211D33B00002201214942002000F005FB002323612000FFF7C6FE050003E02000FFF7C1FE0500B54218D9CD
:4006400000962B00039A02992000FFF747FF051E10D000F0A3F96369002B07D0606900230022002100F024FB0023636100F00AFA00E00025280005B0F0BDC0460A4B9B6AC0
:400680001B68002B01D1013300E00023002B04D001225242044BDA6205E0034B9A6AD268D2685268DA6270476801002010B50400006B00F0D3FC200000F0D0FC10BDC046BF
:4006C000F0B583B000900D0017000193089C0A9E9200A521306B01F05AF8234BFB189B00326B94466344072293431F00002308E0E9180878F218343210700A78002A02D006
:4007000001330F2BF4D900224323F254042C00D90424F46274640023B364301DFFF712FE30001830FFF70EFE366105231C1BB4617662002206E0130012339B00F318002140
:4007400059600132042AF6D9002333666422B354019A0099380000F0C1FB3060099B002B00D01E6003B0F0BDFFFFFF3FF8B5002408E0A2001219930010483030C018FFF747
:40078000D5FD0134042CF4D90D4C270014373800FFF7CCFD260028363000FFF7C7FD074D28001430FFF7C2FD20003C30FFF7BEFD2800FFF7BBFDAF622665F8BD68010020A3
:4007C000E801002010B5040000F0C4FB1E4B5A6D01325A659B6D002B07D11B4B9C655B6D012B0ED1FFF7C2FF0BE0174BDB6D002B07D1154B9B6DDB6AE26A934201D8124BBE
:400800009C65114A136E01331366E36A526E934201D90D4A5366211D9A00D3189A000B4830308018FFF792FD00F0A0FB064BDB6D002B07D0044B9B6DDA6AE36A9A4201D278
:4008400000F07CFB10BDC046E80100206801002070B512E000F07EFB0A4CA36CDD68281DFFF798FD636D013B6365A36E013BA36600F07CFB2800FFF719FF024B9B6E002B6A
:40088000E8D170BDE801002010B5FFF7E1FFFCE770B504000D00154BDE6E986D0430FFF779FD631C08D1002D06D0104B996D04310F48FFF74BFD18E034190C4B9B6D5C605E
:4008C000A64206D9094B186D996D0431FFF74AFD0BE0074DA86A054B996D0431FFF742FDEB6A9C4201D2024BDC6270BDE801002068010020F0B587B00490059114001F0046
:40090000900000F079FB061E0AD0682000F074FB051E01D0066304E0300000F09FFB00E00025002D11D00023039302950D9B01930C9B00933B00220005990498FFF7C0FEBF
:400940002800FFF73FFF012001E00120404207B0F0BDC04600B583B00C4B743301930023009332220A490B48FFF7C4FF01280BD172B601225242084BDA62044B0232DA65F4
:400980000022DA6600F0BCFA03B000BDE8010020B01700008908000068010020024A136F013313677047C046E8010020F8B5324B1B6F002B53D1304BDF6E0137DF66002F1C
:4009C00009D12E4A916A186D906219659A6F01329A67FFF753FE294BDB6A9F4203D2002542E0012500E00025244B9B6A1B68002B01D1013300E00023002B04D0012252426F
:400A00001E4BDA6230E01D4B9B6ADB68DE6873689F4202D2194AD36226E0341D2000FFF7B9FCB36A002B03D030001830FFF7B2FCF36A114A526E934201D90F4A53669A00B7
:400A4000D3189A000D48303080182100FFF77EFCF26A094B9B6DDB6A9A42C2D2C4E7064AD36F0133D3670025054B1B68002B00D001252800F8BDC046E8010020680100206D
:400A80006802002070B500F065FA2D4B1A6F013A1A671B6F002B4CD1294B5B6D002B26D1002449E0274B1B6ADC6820001830FFF771FC251D2800FFF76DFCE36A204A526EB8
:400AC000934201D91E4A53669A00D3189A001D48303080182900FFF739FC194B9B6DDB6AE26A9A4204D30122174B1A6000E00024144B5B69002BD5D1002C01D0FFF7BEFD01
:400B00000F4BDC6F002C0CD0FFF750FF002802D001220D4B1A60013C002CF5D10022084BDA67094B1B68002B05D000F007FA012402E0002400E0002400F018FA200070BDA9
:400B4000E8010020680100206802002010B5041E08D0FFF723FF00212000FFF799FEFFF791FF00E00020002801D100F0E7F910BD10B5284B1B6F002B03D00122264B1A60C9
:400B800046E00022244B1A60224B9B6D1B6B234A1968914209D15968914206D19968914203D1DA681D4B9A4205D01A4B986D996D3431FFF7B9FB174B5B6E00E0013B9900A1
:400BC000C9188A0016498A18126B002AF6D00A009900CC18A0001018446B6468446330321000C9188A0008328218944206D160689900C9188A000A498A1850639900C9185F
:400C00008A0007498A18526BD168024A9165536610BDC046E801002068020020A5A5A5A568010020014B986D7047C046E8010020F8B506000D0017001C0000F08BF91B4BE0
:400C40009A6D6423D35C022B0FD0184A916D0B6EB3430B66926D01216423D154002C04D02000FFF715FE00F069F900F07FF900F071F9002F03D00D4B9B6D1B6E3B600B4B85
:400C80009A6D6423D35C022B06D1084B9A6D136EAB431366012400E00024044B9A6D00216423D15400F062F92000F8BDE8010020F8B504000D0016001F0000F04BF9002F66
:400CC00001D0236E3B606422A35CDBB20221A154022E0DD002D8012E05D016E0032E0CD0042E0DD011E0226E1543256601250FE0226E0132226601250AE02566012507E064
:400D0000022B04D02566012502E0012500E00025012B1BD1261D3000FFF73CFBE36A0D4A526E934201D90B4A53669A00D3189A000948303080183100FFF708FBE26A054BED
:400D40009B6DDB6A9A4201D900F0F8F800F00EF92800F8BDE801002068010020F0B583B004000E0017001D0000F00AF90190002D01D0236E2B606422A35CDBB20221A15444
:400D8000022F0DD002D8012F05D016E0032F0CD0042F0DD011E0226E1643266601260FE0226E0132226601260AE02666012607E0022B04D02666012602E0012600E00026FD
:400DC000012B2ED11A4B1B6F002B14D1271D3800FFF7E0FAE36A164A526E934201D9144A53669A00D3189A001248303080183900FFF7ACFA05E0210018310E481430FFF725
:400E0000A5FAE26A0A4B9B6DDB6A9A4209D9089B002B03D00123089A136002E00122064B1A60019800F0B0F8300003B0F0BDC046E8010020680100206802002010B5041EF3
:400E400001D1094B9C6D00F085F86423E35C022B04D100226233E254012400E0002400F085F8200010BDC046E801002082B00023019372B6019B002BFCD002B07047C0467C
:400E80000B4A13681868203080F30988022080F31488BFF36F8F3FBCAE4608BC04BC62B61847C046C046C046C046C046C046C04640020020054B00221A6005490A60054945
:400EC000054A116007221A607047C04610E000E018E000E0BF5D000014E000E010B5031F802464041C60043B1960043B02491960143B1A60403810BD6D0E00007047C046CA
:400F000010B50C4B1A68FF2109040A431A601A68FF2109060A431A60FFF7CCFF0022064B1A60FFF7ADFFFFF723FEFFF79FFF002010BDC04620ED00E0C400002080225205EF
:400F4000034B1A60BFF34F8FBFF36F8F7047C04604ED00E072B6044A136801331360BFF34F8FBFF36F8F7047C4000020034A1368013B1360002B00D162B67047C400002042
:400F8000EFF3108072B6704780F310887047C046EFF309800E4B1A6820381060F0C044464D4656465F46F0C008B572B6FFF7E0FD62B60CBC116808681030F0C8A046A946FE
:400FC000B246BB4680F309882038F0C81847C0464002002010B5FFF7D3FF0400FFF7E6FC002803D080225205024B1A602000FFF7CBFF10BD04ED00E070B50400430702D036
:4010000007239C430834FFF7C9FC114B1B68002B05D10F4A13000C3307218B4313600D4B5B68E4180C4A944207D8A34207D2084A1568ED18074B5C6002E0002500E00025EE
:40104000FFF720FD002D01D1FFF768F9280070BD6C0200206C060020F70300007047C046F0B50025002711E0BB00C658F3B2FF22964308E06A008A181478A41952782270E8
:401080000135013BDBB2002BF4D10137072FEBD9F0BDC04610B50A00002100F078FB10BD10B500F06BFB10BD10B500F03BFB03680C2B00D1FEE7FEE770B50F4E0F4D13E05B
:4010C00029686B68AC68002202E001C901C30432A242FAD1E868002202E0002102C304328242FAD11035013E002EE9D100F020FBFFF7E8F8FEE7C04601000000B01A0000FF
:4011000010B500230AE0032B03D89A000949505800E009489900094A885001332F2BF2D9FEF7B6FF8022D205116801230B43136010BDC04600000000A910000000000020C5
:401140001F2318401E3B8340014A13607047C04600E100E001BE704770B504000D000F2802D90020FFF7F6FFA40080239B059C4664442068256070BD70B504000D001F288C
:4011800002D90020FFF7E6FF1034A40080239B059C4664442068256070BDC04610B5034B1B7B584300F020FA10BDC046C8000020F0B557464E46C0B483B0040000F01EFAD2
:4011C0000190E71E2D2F74D83F4B1B78DBB29C4208D83E4B1B78DBB29A463D4B1B78DBB2994631E03B4B1B78DBB29C4208D83A4B1B78DBB29A46394B1B78DBB2994623E0B9
:40120000374B1B78DBB29C4208D8364B1B78DBB29A46354B1B78DBB2994615E0334B1B78DBB29C4208D8324B1B78DBB29A46314B1B78DBB2994607E02F4B1B78DBB29A46A4
:401240002E4B1B78DBB299462D4BDE5D2F2E09D92A2C07D919222B4B1A60052000F0C4F9192503E0274B1D683F231D40B54206D9234BDA5D234B1A60052000F0B5F91F4B6A
:401280009C4664442378DBB21F4A13601F4B52461A601F4B4A461A600520FFF77FFFB5420AD2174BDA5D174B1A60052000F09CF902E00020FFF74EFF019800F0A3F903B008
:4012C0000CBC91469A46F0BDC0F1FF0FC1F1FF0FC2F1FF0FC3F1FF0FC4F1FF0FC5F1FF0FC6F1FF0FC7F1FF0FC8F1FF0FC9F1FF0FCAF1FF0FCBF1FF0FCCF1FF0FCDF1FF0FF5
:401300005C1A00002CFF0B4028FF0B401CFF0B4020FF0B40034B1868C0231B02184000D00120704700010B4010B500F067F9044A1368C02109020B43136000F063F910BDC1
:4013400000010B4010B500F059F908490A68084B1A408024E40122430A600A6813408022120213430B6000F04DF910BD00010B40FF3FFFFF70B5050000F040F90400FFF73E
:40138000C9FF002803D0FFF7DDFF012100E0002108482840084A1568084B2B40184310601368012901D1FFF7BFFF200000F02AF970BDC0460404040010020B40FBFBFBFF7B
:4013C00010B5244B1B685B0715D5234B1B685B070ED5224BD969042001401F4C22688A432260DA698243DA611B69002B00D098470420FFF7BFFF174B1B685B0518D5164B50
:401400001B685B0510D5154BD9698022D2001140114802688A430260D969114A0A40DA615B69002B00D098478020C000FFF7A2FF084B1B685B030CD5074B1B685B0304D5B3
:40144000064B9B69002B00D098478020C002FFF791FF10BD10020B40DC00002074060020FFFBFFFF04490A68D2B240239A438001184010430860704700010440024B1868BD
:401480008009012318407047040104407122074B1A70513A064B1A701A3A064B1A704132054B1A700022054B1A70704782000F4081000F4023000F4033000F4080000F40BF
:4014C00010B500F09BF804000B4A117820230B43DBB2137009490A7810231A43D2B20A70074A11780B43DBB2137000F071F8200000F088F810BDC04692000F4091000F400A
:4015000090000F4010B5064B1B78002B04D1FFF7BDFF0122024B1A70FFF7D2FF10BDC04694060020074B1B78DBB29A0606D5064A1078C0B21E221A4202D102E0002000E09B
:401540000020704761000F4042000F40034B1B785B07FBD4024B18707047C04660000F4040000F40014B18647047C0460000002010B5040000F042F8044A1368C0218B4361
:40158000A4011C43146000F03DF810BD00E400E00122014B1A60704700E100E00122014B1A60704780E100E010B50400FFF7F6FF2000FFF7D7FF0320FFF7DAFFFFF7E8FF4C
:4015C00010BDC0460122014B1A60704780E200E0034A1368802109060B4313607047C04600000240000000000230800804D0C0460138FDD1C046C046C0467047EFF3108028
:4016000072B6704780F310887047C046002243088B4274D303098B425FD3030A8B4244D3030B8B4228D3030C8B420DD3FF22090212BA030C8B4202D31212090265D0030BD9
:401640008B4219D300E0090AC30B8B4201D3CB03C01A5241830B8B4201D38B03C01A5241430B8B4201D34B03C01A5241030B8B4201D30B03C01A5241C30A8B4201D3CB02DB
:40168000C01A5241830A8B4201D38B02C01A5241430A8B4201D34B02C01A5241030A8B4201D30B02C01A5241CDD2C3098B4201D3CB01C01A524183098B4201D38B01C01AED
:4016C000524143098B4201D34B01C01A524103098B4201D30B01C01A5241C3088B4201D3CB00C01A524183088B4201D38B00C01A524143088B4201D34B00C01A5241411AC4
:4017000000D20146524110467047FFE701B5002000F006F802BDC0460029F7D076E770477047C046014B18687047C046400100200E4B70B500251E000D4CE41AA410A54223
:4017400004D0AB00F35898470135F8E700F09EF9084B00251E00084CE41AA410A54204D0AB00F35898470135F8E770BD981A0000981A0000981A0000A01A0000002310B5FE
:401780009A4203D0CC5CC4540133F9E710BD03008218934202D019700133FAE770470000000000004C454400554152540000000049444C450000000000300F40000280325E
:4017C0000F40800100400F400004000000320F40DC19000080000000800F81388271040C06710C100EAC0F0C120314DC1580162217131814192C1B431C091ED01F082010A8
:40180000224029712A202B0E2D712F06301F31C0333034E0350F390A3A203B203F0440164103450B460C470E481549FF4AFF4BFF4EF04F44500C5401580459045A045B045F
:401840005F0166C06A406B028240842088208E08902096159E40A003A214A413A604A80AAA14AC13AE0CB00FB210B440B620BA02BB20BE14D418D604D804D904DB04DF0159
:401880000210030204690AA20B040C080E400F02108814021520165019201A801C201D801F2220402130221123102610280229202A102B0A308831203840400243084808B3
:4018C0004B0452485380582059895F02662067428321874088108980C0F5C2BFC4FACA0CCC0ECE08D00AD204D68FD8B090049601A802B202B404B601BE14C006C604C9FFFD
:40190000CA07CBFFCC40CD20CEF0CF05D008D804DA04DF01E040E1A8E240E3200440074808080A800E291208148015101611180419081A011C411F1A27A62D102F1A340A64
:4019400035203610378038033D0142204304448A458047404B104C014D21508857015F206C146E4076117708848087108C0C8E0492809310942996409D089E209F02A180AE
:40198000A218A488A701A820AB80B501B608C0D0C2ECC4F2CA70CCF0CE80D0B0D234D6206E808640DA80E640010854028C028D08C008D604E202E4021001110103000F40E7
:4019C00051300F4036310F4018320F4042330F4004400F4008430F4002600F400000E30200000000080000009C00610000000008FF080000840D000000000402E700180097
:401A0000180D00003C01C20C1001000C58041F019802380800022A00000000144106050002E000C022FFFFFF62A0F0410C0000000000021104040404000000010000000053
:401A400000004002001030100010101200000000000000000000000000000000030405060708090A0B0C0E0F101112131415161718191B1C1D1E1F20212223252627282993
:401A80002A2B2E2F3031323334354300F8B5C046F8BC08BC9E467047E501000001110000F8B5C046F8BC08BC9E467047BD010000C01A0000C0000020880000005005000029
:401AC00000000000AAAAAAAA010000000000E02EC05D00001800000000366E0104040400000000000000000000000000000000000000000000000000000000000000000049
:401B00008A1A000000000000000000000000000000000000000000000000000000000000000000000000000000000000000000000000000000000000000000000000000001
:401B4000E000002000000000000000000000000000000000000000000000000000000000000000000000000000000000000000000000000000000000000000000000000065
:401B80000000000000000000000000000000000000000000000000000000000000000000000000000000000000000000000000000000000000000000000000000000000025
:401BC00000000000000000000000000000000000000000000000000000000000000000000000000000000000000000000000000000000000000000000000000000000000E5
:401C000000000000000000000000000000000000000000000000000000000000000000000000000000000000000000000000000000000000000000000000000000000000A4
:401C40000000000000000000000000000000000000000000000000000000000000000000000000000000000000000000000000000000000000000000000000000000000064
:0200000490303A
:020000003DA31E
:0200000490402A
:200000000000000000000000000000000000000000000000000000000000000000000000E0
:0200000490501A
:0C000000000204C81193110104D14F3616
:0200000490600A
:0100000001FE
:00000001FF